{
	"data": {
		"bytecode": {
			"linkReferences": {},
			"object": "60806040523480156200001157600080fd5b5060405162000f7138038062000f7183398181016040528101906200003791906200016c565b33600160006101000a81548173ffffffffffffffffffffffffffffffffffffffff021916908373ffffffffffffffffffffffffffffffffffffffff160217905550816000806101000a81548173ffffffffffffffffffffffffffffffffffffffff021916908373ffffffffffffffffffffffffffffffffffffffff160217905550806002819055505050620001b3565b600080fd5b600073ffffffffffffffffffffffffffffffffffffffff82169050919050565b6000620000f982620000cc565b9050919050565b6200010b81620000ec565b81146200011757600080fd5b50565b6000815190506200012b8162000100565b92915050565b6000819050919050565b620001468162000131565b81146200015257600080fd5b50565b60008151905062000166816200013b565b92915050565b60008060408385031215620001865762000185620000c7565b5b600062000196858286016200011a565b9250506020620001a98582860162000155565b9150509250929050565b610dae80620001c36000396000f3fe608060405234801561001057600080fd5b50600436106100a95760003560e01c8063b2e0393611610071578063b2e039361461011c578063c35905c614610126578063c63735b314610144578063cc07e8d314610162578063d116c8c414610180578063fb7477761461018a576100a9565b80630fe40449146100ae57806350e452d7146100b857806360f96a8f146100d65780636ec2a3f3146100f4578063a3d68c6814610112575b600080fd5b6100b66101a8565b005b6100c06102ef565b6040516100cd9190610884565b60405180910390f35b6100de610302565b6040516100eb91906108e0565b60405180910390f35b6100fc610328565b6040516101099190610884565b60405180910390f35b61011a61033b565b005b610124610482565b005b61012e6105c9565b60405161013b9190610914565b60405180910390f35b61014c6105cf565b6040516101599190610884565b60405180910390f35b61016a6105e0565b6040516101779190610884565b60405180910390f35b6101886105f3565b005b610192610845565b60405161019f91906108e0565b60405180910390f35b60008054906101000a900473ffffffffffffffffffffffffffffffffffffffff1673ffffffffffffffffffffffffffffffffffffffff163373ffffffffffffffffffffffffffffffffffffffff1614610236576040517f08c379a000000000000000000000000000000000000000000000000000000000815260040161022d9061098c565b60405180910390fd5b600360009054906101000a900460ff1615610286576040517f08c379a000000000000000000000000000000000000000000000000000000000815260040161027d906109f8565b60405180910390fd5b6001600360006101000a81548160ff0219169083151502179055503373ffffffffffffffffffffffffffffffffffffffff167f1a4ab8c005a8afb1d3d6dedda7436e75b776d29e90884aa905a8638f87c6fea86040516102e590610a64565b60405180910390a2565b600360019054906101000a900460ff1681565b600160009054906101000a900473ffffffffffffffffffffffffffffffffffffffff1681565b600360029054906101000a900460ff1681565b60008054906101000a900473ffffffffffffffffffffffffffffffffffffffff1673ffffffffffffffffffffffffffffffffffffffff163373ffffffffffffffffffffffffffffffffffffffff16146103c9576040517f08c379a00000000000000000000000000000000000000000000000000000000081526004016103c09061098c565b60405180910390fd5b600360019054906101000a900460ff1615610419576040517f08c379a000000000000000000000000000000000000000000000000000000000815260040161041090610ad0565b60405180910390fd5b6001600360016101000a81548160ff0219169083151502179055503373ffffffffffffffffffffffffffffffffffffffff167f1a4ab8c005a8afb1d3d6dedda7436e75b776d29e90884aa905a8638f87c6fea860405161047890610b3c565b60405180910390a2565b60008054906101000a900473ffffffffffffffffffffffffffffffffffffffff1673ffffffffffffffffffffffffffffffffffffffff163373ffffffffffffffffffffffffffffffffffffffff1614610510576040517f08c379a00000000000000000000000000000000000000000000000000000000081526004016105079061098c565b60405180910390fd5b600360029054906101000a900460ff1615610560576040517f08c379a000000000000000000000000000000000000000000000000000000000815260040161055790610ba8565b60405180910390fd5b6001600360026101000a81548160ff0219169083151502179055503373ffffffffffffffffffffffffffffffffffffffff167f1a4ab8c005a8afb1d3d6dedda7436e75b776d29e90884aa905a8638f87c6fea86040516105bf90610c14565b60405180910390a2565b60025481565b60038054906101000a900460ff1681565b600360009054906101000a900460ff1681565b600160009054906101000a900473ffffffffffffffffffffffffffffffffffffffff1673ffffffffffffffffffffffffffffffffffffffff163373ffffffffffffffffffffffffffffffffffffffff1614610683576040517f08c379a000000000000000000000000000000000000000000000000000000000815260040161067a90610c80565b60405180910390fd5b600360009054906101000a900460ff1680156106ab5750600360019054906101000a900460ff165b80156106c35750600360029054906101000a900460ff165b610702576040517f08c379a00000000000000000000000000000000000000000000000000000000081526004016106f990610cec565b60405180910390fd5b60038054906101000a900460ff1615610750576040517f08c379a000000000000000000000000000000000000000000000000000000000815260040161074790610d58565b60405180910390fd5b60016003806101000a81548160ff02191690831515021790555060008054906101000a900473ffffffffffffffffffffffffffffffffffffffff1673ffffffffffffffffffffffffffffffffffffffff166108fc6002549081150290604051600060405180830381858888f193505050501580156107d2573d6000803e3d6000fd5b5060008054906101000a900473ffffffffffffffffffffffffffffffffffffffff1673ffffffffffffffffffffffffffffffffffffffff167fdf20fd1e76bc69d672e4814fafb2c449bba3a5369d8359adf9e05e6fde87b05660025460405161083b9190610914565b60405180910390a2565b60008054906101000a900473ffffffffffffffffffffffffffffffffffffffff1681565b60008115159050919050565b61087e81610869565b82525050565b60006020820190506108996000830184610875565b92915050565b600073ffffffffffffffffffffffffffffffffffffffff82169050919050565b60006108ca8261089f565b9050919050565b6108da816108bf565b82525050565b60006020820190506108f560008301846108d1565b92915050565b6000819050919050565b61090e816108fb565b82525050565b60006020820190506109296000830184610905565b92915050565b600082825260208201905092915050565b7f43616c6c6572206973206e6f7420746865206261627973697474657200000000600082015250565b6000610976601c8361092f565b915061098182610940565b602082019050919050565b600060208201905081810360008301526109a581610969565b9050919050565b7f44697368657320616c726561647920636f6d706c657465640000000000000000600082015250565b60006109e260188361092f565b91506109ed826109ac565b602082019050919050565b60006020820190508181036000830152610a11816109d5565b9050919050565b7f5761736820646973686573000000000000000000000000000000000000000000600082015250565b6000610a4e600b8361092f565b9150610a5982610a18565b602082019050919050565b60006020820190508181036000830152610a7d81610a41565b9050919050565b7f56616375756d20616c726561647920636f6d706c657465640000000000000000600082015250565b6000610aba60188361092f565b9150610ac582610a84565b602082019050919050565b60006020820190508181036000830152610ae981610aad565b9050919050565b7f56616375756d2074686520636172706574000000000000000000000000000000600082015250565b6000610b2660118361092f565b9150610b3182610af0565b602082019050919050565b60006020820190508181036000830152610b5581610b19565b9050919050565b7f546f7973206177617920616c726561647920636f6d706c657465640000000000600082015250565b6000610b92601b8361092f565b9150610b9d82610b5c565b602082019050919050565b60006020820190508181036000830152610bc181610b85565b9050919050565b7f50757420746f7973206177617900000000000000000000000000000000000000600082015250565b6000610bfe600d8361092f565b9150610c0982610bc8565b602082019050919050565b60006020820190508181036000830152610c2d81610bf1565b9050919050565b7f43616c6c6572206973206e6f742074686520706172656e740000000000000000600082015250565b6000610c6a60188361092f565b9150610c7582610c34565b602082019050919050565b60006020820190508181036000830152610c9981610c5d565b9050919050565b7f416c6c20647574696573206d75737420626520636f6d706c6574656400000000600082015250565b6000610cd6601c8361092f565b9150610ce182610ca0565b602082019050919050565b60006020820190508181036000830152610d0581610cc9565b9050919050565b7f5061796d656e7420616c72656164792072656c65617365640000000000000000600082015250565b6000610d4260188361092f565b9150610d4d82610d0c565b602082019050919050565b60006020820190508181036000830152610d7181610d35565b905091905056fea264697066735822122093bd50354e148de71f40c959321a813faf855f89112b1f28430e85ced5c3802764736f6c63430008120033",
			"opcodes": "PUSH1 0x80 PUSH1 0x40 MSTORE CALLVALUE DUP1 ISZERO PUSH3 0x11 JUMPI PUSH1 0x0 DUP1 REVERT JUMPDEST POP PUSH1 0x40 MLOAD PUSH3 0xF71 CODESIZE SUB DUP1 PUSH3 0xF71 DUP4 CODECOPY DUP2 DUP2 ADD PUSH1 0x40 MSTORE DUP2 ADD SWAP1 PUSH3 0x37 SWAP2 SWAP1 PUSH3 0x16C JUMP JUMPDEST CALLER PUSH1 0x1 PUSH1 0x0 PUSH2 0x100 EXP DUP2 SLOAD DUP2 PUSH20 0xFFFFFFFFFFFFFFFFFFFFFFFFFFFFFFFFFFFFFFFF MUL NOT AND SWAP1 DUP4 PUSH20 0xFFFFFFFFFFFFFFFFFFFFFFFFFFFFFFFFFFFFFFFF AND MUL OR SWAP1 SSTORE POP DUP2 PUSH1 0x0 DUP1 PUSH2 0x100 EXP DUP2 SLOAD DUP2 PUSH20 0xFFFFFFFFFFFFFFFFFFFFFFFFFFFFFFFFFFFFFFFF MUL NOT AND SWAP1 DUP4 PUSH20 0xFFFFFFFFFFFFFFFFFFFFFFFFFFFFFFFFFFFFFFFF AND MUL OR SWAP1 SSTORE POP DUP1 PUSH1 0x2 DUP2 SWAP1 SSTORE POP POP POP PUSH3 0x1B3 JUMP JUMPDEST PUSH1 0x0 DUP1 REVERT JUMPDEST PUSH1 0x0 PUSH20 0xFFFFFFFFFFFFFFFFFFFFFFFFFFFFFFFFFFFFFFFF DUP3 AND SWAP1 POP SWAP2 SWAP1 POP JUMP JUMPDEST PUSH1 0x0 PUSH3 0xF9 DUP3 PUSH3 0xCC JUMP JUMPDEST SWAP1 POP SWAP2 SWAP1 POP JUMP JUMPDEST PUSH3 0x10B DUP2 PUSH3 0xEC JUMP JUMPDEST DUP2 EQ PUSH3 0x117 JUMPI PUSH1 0x0 DUP1 REVERT JUMPDEST POP JUMP JUMPDEST PUSH1 0x0 DUP2 MLOAD SWAP1 POP PUSH3 0x12B DUP2 PUSH3 0x100 JUMP JUMPDEST SWAP3 SWAP2 POP POP JUMP JUMPDEST PUSH1 0x0 DUP2 SWAP1 POP SWAP2 SWAP1 POP JUMP JUMPDEST PUSH3 0x146 DUP2 PUSH3 0x131 JUMP JUMPDEST DUP2 EQ PUSH3 0x152 JUMPI PUSH1 0x0 DUP1 REVERT JUMPDEST POP JUMP JUMPDEST PUSH1 0x0 DUP2 MLOAD SWAP1 POP PUSH3 0x166 DUP2 PUSH3 0x13B JUMP JUMPDEST SWAP3 SWAP2 POP POP JUMP JUMPDEST PUSH1 0x0 DUP1 PUSH1 0x40 DUP4 DUP6 SUB SLT ISZERO PUSH3 0x186 JUMPI PUSH3 0x185 PUSH3 0xC7 JUMP JUMPDEST JUMPDEST PUSH1 0x0 PUSH3 0x196 DUP6 DUP3 DUP7 ADD PUSH3 0x11A JUMP JUMPDEST SWAP3 POP POP PUSH1 0x20 PUSH3 0x1A9 DUP6 DUP3 DUP7 ADD PUSH3 0x155 JUMP JUMPDEST SWAP2 POP POP SWAP3 POP SWAP3 SWAP1 POP JUMP JUMPDEST PUSH2 0xDAE DUP1 PUSH3 0x1C3 PUSH1 0x0 CODECOPY PUSH1 0x0 RETURN INVALID PUSH1 0x80 PUSH1 0x40 MSTORE CALLVALUE DUP1 ISZERO PUSH2 0x10 JUMPI PUSH1 0x0 DUP1 REVERT JUMPDEST POP PUSH1 0x4 CALLDATASIZE LT PUSH2 0xA9 JUMPI PUSH1 0x0 CALLDATALOAD PUSH1 0xE0 SHR DUP1 PUSH4 0xB2E03936 GT PUSH2 0x71 JUMPI DUP1 PUSH4 0xB2E03936 EQ PUSH2 0x11C JUMPI DUP1 PUSH4 0xC35905C6 EQ PUSH2 0x126 JUMPI DUP1 PUSH4 0xC63735B3 EQ PUSH2 0x144 JUMPI DUP1 PUSH4 0xCC07E8D3 EQ PUSH2 0x162 JUMPI DUP1 PUSH4 0xD116C8C4 EQ PUSH2 0x180 JUMPI DUP1 PUSH4 0xFB747776 EQ PUSH2 0x18A JUMPI PUSH2 0xA9 JUMP JUMPDEST DUP1 PUSH4 0xFE40449 EQ PUSH2 0xAE JUMPI DUP1 PUSH4 0x50E452D7 EQ PUSH2 0xB8 JUMPI DUP1 PUSH4 0x60F96A8F EQ PUSH2 0xD6 JUMPI DUP1 PUSH4 0x6EC2A3F3 EQ PUSH2 0xF4 JUMPI DUP1 PUSH4 0xA3D68C68 EQ PUSH2 0x112 JUMPI JUMPDEST PUSH1 0x0 DUP1 REVERT JUMPDEST PUSH2 0xB6 PUSH2 0x1A8 JUMP JUMPDEST STOP JUMPDEST PUSH2 0xC0 PUSH2 0x2EF JUMP JUMPDEST PUSH1 0x40 MLOAD PUSH2 0xCD SWAP2 SWAP1 PUSH2 0x884 JUMP JUMPDEST PUSH1 0x40 MLOAD DUP1 SWAP2 SUB SWAP1 RETURN JUMPDEST PUSH2 0xDE PUSH2 0x302 JUMP JUMPDEST PUSH1 0x40 MLOAD PUSH2 0xEB SWAP2 SWAP1 PUSH2 0x8E0 JUMP JUMPDEST PUSH1 0x40 MLOAD DUP1 SWAP2 SUB SWAP1 RETURN JUMPDEST PUSH2 0xFC PUSH2 0x328 JUMP JUMPDEST PUSH1 0x40 MLOAD PUSH2 0x109 SWAP2 SWAP1 PUSH2 0x884 JUMP JUMPDEST PUSH1 0x40 MLOAD DUP1 SWAP2 SUB SWAP1 RETURN JUMPDEST PUSH2 0x11A PUSH2 0x33B JUMP JUMPDEST STOP JUMPDEST PUSH2 0x124 PUSH2 0x482 JUMP JUMPDEST STOP JUMPDEST PUSH2 0x12E PUSH2 0x5C9 JUMP JUMPDEST PUSH1 0x40 MLOAD PUSH2 0x13B SWAP2 SWAP1 PUSH2 0x914 JUMP JUMPDEST PUSH1 0x40 MLOAD DUP1 SWAP2 SUB SWAP1 RETURN JUMPDEST PUSH2 0x14C PUSH2 0x5CF JUMP JUMPDEST PUSH1 0x40 MLOAD PUSH2 0x159 SWAP2 SWAP1 PUSH2 0x884 JUMP JUMPDEST PUSH1 0x40 MLOAD DUP1 SWAP2 SUB SWAP1 RETURN JUMPDEST PUSH2 0x16A PUSH2 0x5E0 JUMP JUMPDEST PUSH1 0x40 MLOAD PUSH2 0x177 SWAP2 SWAP1 PUSH2 0x884 JUMP JUMPDEST PUSH1 0x40 MLOAD DUP1 SWAP2 SUB SWAP1 RETURN JUMPDEST PUSH2 0x188 PUSH2 0x5F3 JUMP JUMPDEST STOP JUMPDEST PUSH2 0x192 PUSH2 0x845 JUMP JUMPDEST PUSH1 0x40 MLOAD PUSH2 0x19F SWAP2 SWAP1 PUSH2 0x8E0 JUMP JUMPDEST PUSH1 0x40 MLOAD DUP1 SWAP2 SUB SWAP1 RETURN JUMPDEST PUSH1 0x0 DUP1 SLOAD SWAP1 PUSH2 0x100 EXP SWAP1 DIV PUSH20 0xFFFFFFFFFFFFFFFFFFFFFFFFFFFFFFFFFFFFFFFF AND PUSH20 0xFFFFFFFFFFFFFFFFFFFFFFFFFFFFFFFFFFFFFFFF AND CALLER PUSH20 0xFFFFFFFFFFFFFFFFFFFFFFFFFFFFFFFFFFFFFFFF AND EQ PUSH2 0x236 JUMPI PUSH1 0x40 MLOAD PUSH32 0x8C379A000000000000000000000000000000000000000000000000000000000 DUP2 MSTORE PUSH1 0x4 ADD PUSH2 0x22D SWAP1 PUSH2 0x98C JUMP JUMPDEST PUSH1 0x40 MLOAD DUP1 SWAP2 SUB SWAP1 REVERT JUMPDEST PUSH1 0x3 PUSH1 0x0 SWAP1 SLOAD SWAP1 PUSH2 0x100 EXP SWAP1 DIV PUSH1 0xFF AND ISZERO PUSH2 0x286 JUMPI PUSH1 0x40 MLOAD PUSH32 0x8C379A000000000000000000000000000000000000000000000000000000000 DUP2 MSTORE PUSH1 0x4 ADD PUSH2 0x27D SWAP1 PUSH2 0x9F8 JUMP JUMPDEST PUSH1 0x40 MLOAD DUP1 SWAP2 SUB SWAP1 REVERT JUMPDEST PUSH1 0x1 PUSH1 0x3 PUSH1 0x0 PUSH2 0x100 EXP DUP2 SLOAD DUP2 PUSH1 0xFF MUL NOT AND SWAP1 DUP4 ISZERO ISZERO MUL OR SWAP1 SSTORE POP CALLER PUSH20 0xFFFFFFFFFFFFFFFFFFFFFFFFFFFFFFFFFFFFFFFF AND PUSH32 0x1A4AB8C005A8AFB1D3D6DEDDA7436E75B776D29E90884AA905A8638F87C6FEA8 PUSH1 0x40 MLOAD PUSH2 0x2E5 SWAP1 PUSH2 0xA64 JUMP JUMPDEST PUSH1 0x40 MLOAD DUP1 SWAP2 SUB SWAP1 LOG2 JUMP JUMPDEST PUSH1 0x3 PUSH1 0x1 SWAP1 SLOAD SWAP1 PUSH2 0x100 EXP SWAP1 DIV PUSH1 0xFF AND DUP2 JUMP JUMPDEST PUSH1 0x1 PUSH1 0x0 SWAP1 SLOAD SWAP1 PUSH2 0x100 EXP SWAP1 DIV PUSH20 0xFFFFFFFFFFFFFFFFFFFFFFFFFFFFFFFFFFFFFFFF AND DUP2 JUMP JUMPDEST PUSH1 0x3 PUSH1 0x2 SWAP1 SLOAD SWAP1 PUSH2 0x100 EXP SWAP1 DIV PUSH1 0xFF AND DUP2 JUMP JUMPDEST PUSH1 0x0 DUP1 SLOAD SWAP1 PUSH2 0x100 EXP SWAP1 DIV PUSH20 0xFFFFFFFFFFFFFFFFFFFFFFFFFFFFFFFFFFFFFFFF AND PUSH20 0xFFFFFFFFFFFFFFFFFFFFFFFFFFFFFFFFFFFFFFFF AND CALLER PUSH20 0xFFFFFFFFFFFFFFFFFFFFFFFFFFFFFFFFFFFFFFFF AND EQ PUSH2 0x3C9 JUMPI PUSH1 0x40 MLOAD PUSH32 0x8C379A000000000000000000000000000000000000000000000000000000000 DUP2 MSTORE PUSH1 0x4 ADD PUSH2 0x3C0 SWAP1 PUSH2 0x98C JUMP JUMPDEST PUSH1 0x40 MLOAD DUP1 SWAP2 SUB SWAP1 REVERT JUMPDEST PUSH1 0x3 PUSH1 0x1 SWAP1 SLOAD SWAP1 PUSH2 0x100 EXP SWAP1 DIV PUSH1 0xFF AND ISZERO PUSH2 0x419 JUMPI PUSH1 0x40 MLOAD PUSH32 0x8C379A000000000000000000000000000000000000000000000000000000000 DUP2 MSTORE PUSH1 0x4 ADD PUSH2 0x410 SWAP1 PUSH2 0xAD0 JUMP JUMPDEST PUSH1 0x40 MLOAD DUP1 SWAP2 SUB SWAP1 REVERT JUMPDEST PUSH1 0x1 PUSH1 0x3 PUSH1 0x1 PUSH2 0x100 EXP DUP2 SLOAD DUP2 PUSH1 0xFF MUL NOT AND SWAP1 DUP4 ISZERO ISZERO MUL OR SWAP1 SSTORE POP CALLER PUSH20 0xFFFFFFFFFFFFFFFFFFFFFFFFFFFFFFFFFFFFFFFF AND PUSH32 0x1A4AB8C005A8AFB1D3D6DEDDA7436E75B776D29E90884AA905A8638F87C6FEA8 PUSH1 0x40 MLOAD PUSH2 0x478 SWAP1 PUSH2 0xB3C JUMP JUMPDEST PUSH1 0x40 MLOAD DUP1 SWAP2 SUB SWAP1 LOG2 JUMP JUMPDEST PUSH1 0x0 DUP1 SLOAD SWAP1 PUSH2 0x100 EXP SWAP1 DIV PUSH20 0xFFFFFFFFFFFFFFFFFFFFFFFFFFFFFFFFFFFFFFFF AND PUSH20 0xFFFFFFFFFFFFFFFFFFFFFFFFFFFFFFFFFFFFFFFF AND CALLER PUSH20 0xFFFFFFFFFFFFFFFFFFFFFFFFFFFFFFFFFFFFFFFF AND EQ PUSH2 0x510 JUMPI PUSH1 0x40 MLOAD PUSH32 0x8C379A000000000000000000000000000000000000000000000000000000000 DUP2 MSTORE PUSH1 0x4 ADD PUSH2 0x507 SWAP1 PUSH2 0x98C JUMP JUMPDEST PUSH1 0x40 MLOAD DUP1 SWAP2 SUB SWAP1 REVERT JUMPDEST PUSH1 0x3 PUSH1 0x2 SWAP1 SLOAD SWAP1 PUSH2 0x100 EXP SWAP1 DIV PUSH1 0xFF AND ISZERO PUSH2 0x560 JUMPI PUSH1 0x40 MLOAD PUSH32 0x8C379A000000000000000000000000000000000000000000000000000000000 DUP2 MSTORE PUSH1 0x4 ADD PUSH2 0x557 SWAP1 PUSH2 0xBA8 JUMP JUMPDEST PUSH1 0x40 MLOAD DUP1 SWAP2 SUB SWAP1 REVERT JUMPDEST PUSH1 0x1 PUSH1 0x3 PUSH1 0x2 PUSH2 0x100 EXP DUP2 SLOAD DUP2 PUSH1 0xFF MUL NOT AND SWAP1 DUP4 ISZERO ISZERO MUL OR SWAP1 SSTORE POP CALLER PUSH20 0xFFFFFFFFFFFFFFFFFFFFFFFFFFFFFFFFFFFFFFFF AND PUSH32 0x1A4AB8C005A8AFB1D3D6DEDDA7436E75B776D29E90884AA905A8638F87C6FEA8 PUSH1 0x40 MLOAD PUSH2 0x5BF SWAP1 PUSH2 0xC14 JUMP JUMPDEST PUSH1 0x40 MLOAD DUP1 SWAP2 SUB SWAP1 LOG2 JUMP JUMPDEST PUSH1 0x2 SLOAD DUP2 JUMP JUMPDEST PUSH1 0x3 DUP1 SLOAD SWAP1 PUSH2 0x100 EXP SWAP1 DIV PUSH1 0xFF AND DUP2 JUMP JUMPDEST PUSH1 0x3 PUSH1 0x0 SWAP1 SLOAD SWAP1 PUSH2 0x100 EXP SWAP1 DIV PUSH1 0xFF AND DUP2 JUMP JUMPDEST PUSH1 0x1 PUSH1 0x0 SWAP1 SLOAD SWAP1 PUSH2 0x100 EXP SWAP1 DIV PUSH20 0xFFFFFFFFFFFFFFFFFFFFFFFFFFFFFFFFFFFFFFFF AND PUSH20 0xFFFFFFFFFFFFFFFFFFFFFFFFFFFFFFFFFFFFFFFF AND CALLER PUSH20 0xFFFFFFFFFFFFFFFFFFFFFFFFFFFFFFFFFFFFFFFF AND EQ PUSH2 0x683 JUMPI PUSH1 0x40 MLOAD PUSH32 0x8C379A000000000000000000000000000000000000000000000000000000000 DUP2 MSTORE PUSH1 0x4 ADD PUSH2 0x67A SWAP1 PUSH2 0xC80 JUMP JUMPDEST PUSH1 0x40 MLOAD DUP1 SWAP2 SUB SWAP1 REVERT JUMPDEST PUSH1 0x3 PUSH1 0x0 SWAP1 SLOAD SWAP1 PUSH2 0x100 EXP SWAP1 DIV PUSH1 0xFF AND DUP1 ISZERO PUSH2 0x6AB JUMPI POP PUSH1 0x3 PUSH1 0x1 SWAP1 SLOAD SWAP1 PUSH2 0x100 EXP SWAP1 DIV PUSH1 0xFF AND JUMPDEST DUP1 ISZERO PUSH2 0x6C3 JUMPI POP PUSH1 0x3 PUSH1 0x2 SWAP1 SLOAD SWAP1 PUSH2 0x100 EXP SWAP1 DIV PUSH1 0xFF AND JUMPDEST PUSH2 0x702 JUMPI PUSH1 0x40 MLOAD PUSH32 0x8C379A000000000000000000000000000000000000000000000000000000000 DUP2 MSTORE PUSH1 0x4 ADD PUSH2 0x6F9 SWAP1 PUSH2 0xCEC JUMP JUMPDEST PUSH1 0x40 MLOAD DUP1 SWAP2 SUB SWAP1 REVERT JUMPDEST PUSH1 0x3 DUP1 SLOAD SWAP1 PUSH2 0x100 EXP SWAP1 DIV PUSH1 0xFF AND ISZERO PUSH2 0x750 JUMPI PUSH1 0x40 MLOAD PUSH32 0x8C379A000000000000000000000000000000000000000000000000000000000 DUP2 MSTORE PUSH1 0x4 ADD PUSH2 0x747 SWAP1 PUSH2 0xD58 JUMP JUMPDEST PUSH1 0x40 MLOAD DUP1 SWAP2 SUB SWAP1 REVERT JUMPDEST PUSH1 0x1 PUSH1 0x3 DUP1 PUSH2 0x100 EXP DUP2 SLOAD DUP2 PUSH1 0xFF MUL NOT AND SWAP1 DUP4 ISZERO ISZERO MUL OR SWAP1 SSTORE POP PUSH1 0x0 DUP1 SLOAD SWAP1 PUSH2 0x100 EXP SWAP1 DIV PUSH20 0xFFFFFFFFFFFFFFFFFFFFFFFFFFFFFFFFFFFFFFFF AND PUSH20 0xFFFFFFFFFFFFFFFFFFFFFFFFFFFFFFFFFFFFFFFF AND PUSH2 0x8FC PUSH1 0x2 SLOAD SWAP1 DUP2 ISZERO MUL SWAP1 PUSH1 0x40 MLOAD PUSH1 0x0 PUSH1 0x40 MLOAD DUP1 DUP4 SUB DUP2 DUP6 DUP9 DUP9 CALL SWAP4 POP POP POP POP ISZERO DUP1 ISZERO PUSH2 0x7D2 JUMPI RETURNDATASIZE PUSH1 0x0 DUP1 RETURNDATACOPY RETURNDATASIZE PUSH1 0x0 REVERT JUMPDEST POP PUSH1 0x0 DUP1 SLOAD SWAP1 PUSH2 0x100 EXP SWAP1 DIV PUSH20 0xFFFFFFFFFFFFFFFFFFFFFFFFFFFFFFFFFFFFFFFF AND PUSH20 0xFFFFFFFFFFFFFFFFFFFFFFFFFFFFFFFFFFFFFFFF AND PUSH32 0xDF20FD1E76BC69D672E4814FAFB2C449BBA3A5369D8359ADF9E05E6FDE87B056 PUSH1 0x2 SLOAD PUSH1 0x40 MLOAD PUSH2 0x83B SWAP2 SWAP1 PUSH2 0x914 JUMP JUMPDEST PUSH1 0x40 MLOAD DUP1 SWAP2 SUB SWAP1 LOG2 JUMP JUMPDEST PUSH1 0x0 DUP1 SLOAD SWAP1 PUSH2 0x100 EXP SWAP1 DIV PUSH20 0xFFFFFFFFFFFFFFFFFFFFFFFFFFFFFFFFFFFFFFFF AND DUP2 JUMP JUMPDEST PUSH1 0x0 DUP2 ISZERO ISZERO SWAP1 POP SWAP2 SWAP1 POP JUMP JUMPDEST PUSH2 0x87E DUP2 PUSH2 0x869 JUMP JUMPDEST DUP3 MSTORE POP POP JUMP JUMPDEST PUSH1 0x0 PUSH1 0x20 DUP3 ADD SWAP1 POP PUSH2 0x899 PUSH1 0x0 DUP4 ADD DUP5 PUSH2 0x875 JUMP JUMPDEST SWAP3 SWAP2 POP POP JUMP JUMPDEST PUSH1 0x0 PUSH20 0xFFFFFFFFFFFFFFFFFFFFFFFFFFFFFFFFFFFFFFFF DUP3 AND SWAP1 POP SWAP2 SWAP1 POP JUMP JUMPDEST PUSH1 0x0 PUSH2 0x8CA DUP3 PUSH2 0x89F JUMP JUMPDEST SWAP1 POP SWAP2 SWAP1 POP JUMP JUMPDEST PUSH2 0x8DA DUP2 PUSH2 0x8BF JUMP JUMPDEST DUP3 MSTORE POP POP JUMP JUMPDEST PUSH1 0x0 PUSH1 0x20 DUP3 ADD SWAP1 POP PUSH2 0x8F5 PUSH1 0x0 DUP4 ADD DUP5 PUSH2 0x8D1 JUMP JUMPDEST SWAP3 SWAP2 POP POP JUMP JUMPDEST PUSH1 0x0 DUP2 SWAP1 POP SWAP2 SWAP1 POP JUMP JUMPDEST PUSH2 0x90E DUP2 PUSH2 0x8FB JUMP JUMPDEST DUP3 MSTORE POP POP JUMP JUMPDEST PUSH1 0x0 PUSH1 0x20 DUP3 ADD SWAP1 POP PUSH2 0x929 PUSH1 0x0 DUP4 ADD DUP5 PUSH2 0x905 JUMP JUMPDEST SWAP3 SWAP2 POP POP JUMP JUMPDEST PUSH1 0x0 DUP3 DUP3 MSTORE PUSH1 0x20 DUP3 ADD SWAP1 POP SWAP3 SWAP2 POP POP JUMP JUMPDEST PUSH32 0x43616C6C6572206973206E6F7420746865206261627973697474657200000000 PUSH1 0x0 DUP3 ADD MSTORE POP JUMP JUMPDEST PUSH1 0x0 PUSH2 0x976 PUSH1 0x1C DUP4 PUSH2 0x92F JUMP JUMPDEST SWAP2 POP PUSH2 0x981 DUP3 PUSH2 0x940 JUMP JUMPDEST PUSH1 0x20 DUP3 ADD SWAP1 POP SWAP2 SWAP1 POP JUMP JUMPDEST PUSH1 0x0 PUSH1 0x20 DUP3 ADD SWAP1 POP DUP2 DUP2 SUB PUSH1 0x0 DUP4 ADD MSTORE PUSH2 0x9A5 DUP2 PUSH2 0x969 JUMP JUMPDEST SWAP1 POP SWAP2 SWAP1 POP JUMP JUMPDEST PUSH32 0x44697368657320616C726561647920636F6D706C657465640000000000000000 PUSH1 0x0 DUP3 ADD MSTORE POP JUMP JUMPDEST PUSH1 0x0 PUSH2 0x9E2 PUSH1 0x18 DUP4 PUSH2 0x92F JUMP JUMPDEST SWAP2 POP PUSH2 0x9ED DUP3 PUSH2 0x9AC JUMP JUMPDEST PUSH1 0x20 DUP3 ADD SWAP1 POP SWAP2 SWAP1 POP JUMP JUMPDEST PUSH1 0x0 PUSH1 0x20 DUP3 ADD SWAP1 POP DUP2 DUP2 SUB PUSH1 0x0 DUP4 ADD MSTORE PUSH2 0xA11 DUP2 PUSH2 0x9D5 JUMP JUMPDEST SWAP1 POP SWAP2 SWAP1 POP JUMP JUMPDEST PUSH32 0x5761736820646973686573000000000000000000000000000000000000000000 PUSH1 0x0 DUP3 ADD MSTORE POP JUMP JUMPDEST PUSH1 0x0 PUSH2 0xA4E PUSH1 0xB DUP4 PUSH2 0x92F JUMP JUMPDEST SWAP2 POP PUSH2 0xA59 DUP3 PUSH2 0xA18 JUMP JUMPDEST PUSH1 0x20 DUP3 ADD SWAP1 POP SWAP2 SWAP1 POP JUMP JUMPDEST PUSH1 0x0 PUSH1 0x20 DUP3 ADD SWAP1 POP DUP2 DUP2 SUB PUSH1 0x0 DUP4 ADD MSTORE PUSH2 0xA7D DUP2 PUSH2 0xA41 JUMP JUMPDEST SWAP1 POP SWAP2 SWAP1 POP JUMP JUMPDEST PUSH32 0x56616375756D20616C726561647920636F6D706C657465640000000000000000 PUSH1 0x0 DUP3 ADD MSTORE POP JUMP JUMPDEST PUSH1 0x0 PUSH2 0xABA PUSH1 0x18 DUP4 PUSH2 0x92F JUMP JUMPDEST SWAP2 POP PUSH2 0xAC5 DUP3 PUSH2 0xA84 JUMP JUMPDEST PUSH1 0x20 DUP3 ADD SWAP1 POP SWAP2 SWAP1 POP JUMP JUMPDEST PUSH1 0x0 PUSH1 0x20 DUP3 ADD SWAP1 POP DUP2 DUP2 SUB PUSH1 0x0 DUP4 ADD MSTORE PUSH2 0xAE9 DUP2 PUSH2 0xAAD JUMP JUMPDEST SWAP1 POP SWAP2 SWAP1 POP JUMP JUMPDEST PUSH32 0x56616375756D2074686520636172706574000000000000000000000000000000 PUSH1 0x0 DUP3 ADD MSTORE POP JUMP JUMPDEST PUSH1 0x0 PUSH2 0xB26 PUSH1 0x11 DUP4 PUSH2 0x92F JUMP JUMPDEST SWAP2 POP PUSH2 0xB31 DUP3 PUSH2 0xAF0 JUMP JUMPDEST PUSH1 0x20 DUP3 ADD SWAP1 POP SWAP2 SWAP1 POP JUMP JUMPDEST PUSH1 0x0 PUSH1 0x20 DUP3 ADD SWAP1 POP DUP2 DUP2 SUB PUSH1 0x0 DUP4 ADD MSTORE PUSH2 0xB55 DUP2 PUSH2 0xB19 JUMP JUMPDEST SWAP1 POP SWAP2 SWAP1 POP JUMP JUMPDEST PUSH32 0x546F7973206177617920616C726561647920636F6D706C657465640000000000 PUSH1 0x0 DUP3 ADD MSTORE POP JUMP JUMPDEST PUSH1 0x0 PUSH2 0xB92 PUSH1 0x1B DUP4 PUSH2 0x92F JUMP JUMPDEST SWAP2 POP PUSH2 0xB9D DUP3 PUSH2 0xB5C JUMP JUMPDEST PUSH1 0x20 DUP3 ADD SWAP1 POP SWAP2 SWAP1 POP JUMP JUMPDEST PUSH1 0x0 PUSH1 0x20 DUP3 ADD SWAP1 POP DUP2 DUP2 SUB PUSH1 0x0 DUP4 ADD MSTORE PUSH2 0xBC1 DUP2 PUSH2 0xB85 JUMP JUMPDEST SWAP1 POP SWAP2 SWAP1 POP JUMP JUMPDEST PUSH32 0x50757420746F7973206177617900000000000000000000000000000000000000 PUSH1 0x0 DUP3 ADD MSTORE POP JUMP JUMPDEST PUSH1 0x0 PUSH2 0xBFE PUSH1 0xD DUP4 PUSH2 0x92F JUMP JUMPDEST SWAP2 POP PUSH2 0xC09 DUP3 PUSH2 0xBC8 JUMP JUMPDEST PUSH1 0x20 DUP3 ADD SWAP1 POP SWAP2 SWAP1 POP JUMP JUMPDEST PUSH1 0x0 PUSH1 0x20 DUP3 ADD SWAP1 POP DUP2 DUP2 SUB PUSH1 0x0 DUP4 ADD MSTORE PUSH2 0xC2D DUP2 PUSH2 0xBF1 JUMP JUMPDEST SWAP1 POP SWAP2 SWAP1 POP JUMP JUMPDEST PUSH32 0x43616C6C6572206973206E6F742074686520706172656E740000000000000000 PUSH1 0x0 DUP3 ADD MSTORE POP JUMP JUMPDEST PUSH1 0x0 PUSH2 0xC6A PUSH1 0x18 DUP4 PUSH2 0x92F JUMP JUMPDEST SWAP2 POP PUSH2 0xC75 DUP3 PUSH2 0xC34 JUMP JUMPDEST PUSH1 0x20 DUP3 ADD SWAP1 POP SWAP2 SWAP1 POP JUMP JUMPDEST PUSH1 0x0 PUSH1 0x20 DUP3 ADD SWAP1 POP DUP2 DUP2 SUB PUSH1 0x0 DUP4 ADD MSTORE PUSH2 0xC99 DUP2 PUSH2 0xC5D JUMP JUMPDEST SWAP1 POP SWAP2 SWAP1 POP JUMP JUMPDEST PUSH32 0x416C6C20647574696573206D75737420626520636F6D706C6574656400000000 PUSH1 0x0 DUP3 ADD MSTORE POP JUMP JUMPDEST PUSH1 0x0 PUSH2 0xCD6 PUSH1 0x1C DUP4 PUSH2 0x92F JUMP JUMPDEST SWAP2 POP PUSH2 0xCE1 DUP3 PUSH2 0xCA0 JUMP JUMPDEST PUSH1 0x20 DUP3 ADD SWAP1 POP SWAP2 SWAP1 POP JUMP JUMPDEST PUSH1 0x0 PUSH1 0x20 DUP3 ADD SWAP1 POP DUP2 DUP2 SUB PUSH1 0x0 DUP4 ADD MSTORE PUSH2 0xD05 DUP2 PUSH2 0xCC9 JUMP JUMPDEST SWAP1 POP SWAP2 SWAP1 POP JUMP JUMPDEST PUSH32 0x5061796D656E7420616C72656164792072656C65617365640000000000000000 PUSH1 0x0 DUP3 ADD MSTORE POP JUMP JUMPDEST PUSH1 0x0 PUSH2 0xD42 PUSH1 0x18 DUP4 PUSH2 0x92F JUMP JUMPDEST SWAP2 POP PUSH2 0xD4D DUP3 PUSH2 0xD0C JUMP JUMPDEST PUSH1 0x20 DUP3 ADD SWAP1 POP SWAP2 SWAP1 POP JUMP JUMPDEST PUSH1 0x0 PUSH1 0x20 DUP3 ADD SWAP1 POP DUP2 DUP2 SUB PUSH1 0x0 DUP4 ADD MSTORE PUSH2 0xD71 DUP2 PUSH2 0xD35 JUMP JUMPDEST SWAP1 POP SWAP2 SWAP1 POP JUMP INVALID LOG2 PUSH5 0x6970667358 0x22 SLT KECCAK256 SWAP4 0xBD POP CALLDATALOAD 0x4E EQ DUP14 0xE7 0x1F BLOCKHASH 0xC9 MSIZE ORIGIN BYTE DUP2 EXTCODEHASH 0xAF DUP6 0x5F DUP10 GT 0x2B 0x1F 0x28 NUMBER 0xE DUP6 0xCE 0xD5 0xC3 DUP1 0x27 PUSH5 0x736F6C6343 STOP ADDMOD SLT STOP CALLER "
		},
		"gasEstimates": {
			"creation": {
				"codeDepositCost": "700400",
				"executionCost": "infinite",
				"totalCost": "infinite"
			},
			"external": {
				"babysitter()": "2621",
				"completeDishes()": "30920",
				"completeToysAway()": "31019",
				"completeVacuum()": "31108",
				"dishesCompleted()": "2537",
				"parent()": "2559",
				"paymentAmount()": "2451",
				"paymentReleased()": "2562",
				"releasePayment()": "infinite",
				"toysAwayCompleted()": "2588",
				"vacuumCompleted()": "2544"
			}
		},
		"methodIdentifiers": {
			"babysitter()": "fb747776",
			"completeDishes()": "0fe40449",
			"completeToysAway()": "b2e03936",
			"completeVacuum()": "a3d68c68",
			"dishesCompleted()": "cc07e8d3",
			"parent()": "60f96a8f",
			"paymentAmount()": "c35905c6",
			"paymentReleased()": "c63735b3",
			"releasePayment()": "d116c8c4",
			"toysAwayCompleted()": "6ec2a3f3",
			"vacuumCompleted()": "50e452d7"
		}
	},
	"abi": [
		{
			"inputs": [
				{
					"internalType": "address",
					"name": "_babysitter",
					"type": "address"
				},
				{
					"internalType": "uint256",
					"name": "_paymentAmount",
					"type": "uint256"
				}
			],
			"stateMutability": "nonpayable",
			"type": "constructor"
		},
		{
			"anonymous": false,
			"inputs": [
				{
					"indexed": true,
					"internalType": "address",
					"name": "doer",
					"type": "address"
				},
				{
					"indexed": false,
					"internalType": "string",
					"name": "duty",
					"type": "string"
				}
			],
			"name": "DutiesCompleted",
			"type": "event"
		},
		{
			"anonymous": false,
			"inputs": [
				{
					"indexed": true,
					"internalType": "address",
					"name": "babysitter",
					"type": "address"
				},
				{
					"indexed": false,
					"internalType": "uint256",
					"name": "amount",
					"type": "uint256"
				}
			],
			"name": "PaymentReleased",
			"type": "event"
		},
		{
			"inputs": [],
			"name": "babysitter",
			"outputs": [
				{
					"internalType": "address",
					"name": "",
					"type": "address"
				}
			],
			"stateMutability": "view",
			"type": "function"
		},
		{
			"inputs": [],
			"name": "completeDishes",
			"outputs": [],
			"stateMutability": "nonpayable",
			"type": "function"
		},
		{
			"inputs": [],
			"name": "completeToysAway",
			"outputs": [],
			"stateMutability": "nonpayable",
			"type": "function"
		},
		{
			"inputs": [],
			"name": "completeVacuum",
			"outputs": [],
			"stateMutability": "nonpayable",
			"type": "function"
		},
		{
			"inputs": [],
			"name": "dishesCompleted",
			"outputs": [
				{
					"internalType": "bool",
					"name": "",
					"type": "bool"
				}
			],
			"stateMutability": "view",
			"type": "function"
		},
		{
			"inputs": [],
			"name": "parent",
			"outputs": [
				{
					"internalType": "address",
					"name": "",
					"type": "address"
				}
			],
			"stateMutability": "view",
			"type": "function"
		},
		{
			"inputs": [],
			"name": "paymentAmount",
			"outputs": [
				{
					"internalType": "uint256",
					"name": "",
					"type": "uint256"
				}
			],
			"stateMutability": "view",
			"type": "function"
		},
		{
			"inputs": [],
			"name": "paymentReleased",
			"outputs": [
				{
					"internalType": "bool",
					"name": "",
					"type": "bool"
				}
			],
			"stateMutability": "view",
			"type": "function"
		},
		{
			"inputs": [],
			"name": "releasePayment",
			"outputs": [],
			"stateMutability": "nonpayable",
			"type": "function"
		},
		{
			"inputs": [],
			"name": "toysAwayCompleted",
			"outputs": [
				{
					"internalType": "bool",
					"name": "",
					"type": "bool"
				}
			],
			"stateMutability": "view",
			"type": "function"
		},
		{
			"inputs": [],
			"name": "vacuumCompleted",
			"outputs": [
				{
					"internalType": "bool",
					"name": "",
					"type": "bool"
				}
			],
			"stateMutability": "view",
			"type": "function"
		}
	]
}